:02000000CD2A07
:0E000600F201F101F001F801F30100300800F1
:10001400710DF80DF90D7408F8027508031C750FBD
:10002400F902F00DF10D0F30FC00710DF80DF90D12
:100034007408701C2328F8027508031C750FF90254
:100044002828F80775080318750FF907F00DF10D46
:10005400FC0B1728701834287408F807750803185F
:08006400750FF9070000080008
:08006C00FA1FF2130030080036
:100074007B15FB1F44280130F300F201F101F0016C
:08008400FA0DF20CFF30080038
:10008C00FB14FB1F5028FF30F300F200F100F000CE
:08009C00FA0DF20CFF30080020
:1000A4007B14FB1F5D28F201FA1FFF30F200F10000
:0A00B400F000FA0DF20CFF30080016
:1000BE00831203137408003A031D6E287508003A64
:1000CE00031D6E28FF30F0007F30F100C728831229
:1000DE000313FD01F901F8017108700403190034CE
:1000EE0071087506FA00FA1BFD09FB01F51F84283D
:1000FE00F409F509F40A0319F50AF11F8B28F00922
:10010E00F109F00A0319F10A71087504FA00FA1BD5
:10011E00A0280A207B18B328FD1F0034F009F1092E
:10012E00F00A0319F10AF809F909F80A0319F90A8C
:10013E000034F51FAF28F11BAB287108F9007008C9
:10014E00F800F101F0019328F101F001F00A0034FA
:10015E00F109F009FB0A9028F80A0319F90A740844
:10016E007802031D932875087902031D9328F9015F
:10017E00F801F00A0319F10AF11F93280000FF3469
:02018E00080067
:100190000E3083120313FD00FD0BCC280000080075
:1001A000A0017208031DE5287108F2007008F10033
:1001B000F001A0157208031DE5287108F200F10195
:1001C000A011201672080319F3282008F302031D5A
:1001D000031CF7280310F21BFB28F00DF10DF20DA4
:1001E000F30BEB28F7280130FC000320FE28023037
:0E01F000FC003A20FE280430FC0036200800F7
:1001FE0083120313FB01FA01F9018030F800F10CB0
:10020E00F00C031C13297408F90775080318750FF1
:10021E00FA070318FB0A0310F01F1B297408FA07CC
:10022E0075080318750FFB07FB0CFA0CF90CF80C8C
:10023E00031C06297B08F3007A08F2007908F10006
:06024E007808F000080032
:0E025400831203132F088A002E088200080070
:1002620083120313FB017308031D770803198829FE
:1002720072087606FA007708F3077E30031C4529D8
:10028200F30203188B294829F302031C8E297208F2
:10029200F8007108FC007008FD00F817F61703104B
:1002A200F201F101F0011830A0007D1C62297408EE
:1002B200F00775080318750FF10776080318760F13
:1002C200F207F20CF10CF00CF80CFC0CFD0C031014
:1002D200A00B5629F21B7229F80DF00DF10DF20D4B
:1002E200F3037B1B701C8429F81F8429F00A03196D
:1002F200F10A0319F20A031D8429F20CF10CF00C25
:10030200F30A03198B29FA1FF213003090290130E6
:100312000320902902304620902904303A20000020
:020322000800D1
:100324008312031387160A30F4000030F5003108F5
:10033400F0003208F1005F207808F0007908F1003D
:100344007008B0007008243E8400000888000D3056
:10035400FC00FB30FD00FD0BAD29FC0BAD290000BA
:08036400000087128801080067
:10036C00831603131208013EF000F1010318F10A81
:10037C0083123A08F400F501FF200630F2007008F1
:10038C00F4007108F50072080319D129F50CF40C6E
:10039C00F513FF3ECA290430F1007408F00071080F
:1003AC000319DC29F00D7010FF3ED6293030700592
:1003BC00F3007408F0007508F100F10CF00CF11367
:1003CC00F10CF00CF113700895000F3097057308C1
:0403DC00970408007A
:1003E00083120313FB01730803192D2A7208FA0004
:1003F000F2178E30F302F31F302AF309F30A0830A4
:100400007302031C132AF300F10D7208F100F201CC
:1004100008307302031C132AF300F10DF101730875
:10042000031D03101B2A730803191B2A0310F20C67
:10043000F10CF30B162A7B1B711C252A031C252AA1
:10044000F10A0319F20AF21B3C2AFA1F3F2AF209A9
:10045000F109F10A0319F20A3F2AF201F1013F2AD8
:100460007B14FB1F422AF201FA1F422AFF30F200DE
:10047000F100FA0DF20C422A0130FC00442A00304F
:10048000FC00442AFF30FC00FC080319482A5220D3
:0A0490007108F0007208F100080086
:10049A00831203137008F8007108F000F101F201E9
:1004AA00F301FB01FC019630F300FA01F01F632A05
:1004BA00F809F009F80A0319F00AFA177008F100A6
:0C04CA007808F000F801F201D0200800D2
:1004D600831603130711831212150C3097040800B4
:1004E600831203139F01C0309F042309F000700894
:1004F60083169F051F179F1783123A08F000F00D09
:100506007010F00D7010F00D701070089F041F141D
:10051600C8201F151F1D912A00008D2A1F101E08B6
:10052600F100F00183161E08F0040030F104080003
:100536002A218A110A128000840AAE0A0319AF0A18
:08054600F003031D9B2A0800CD
:10054E008312031307160A30F4000030F500310849
:10055E00F0003208F1005F207008B7007008243EEA
:10056E008400000888000D30FC00FB30FD00FD0B00
:10057E00BE2AFC0BBE2A00000000071288010800EC
:0C058E0083120313950117129712080046
:10059A00642383160313880183128801FF308316AC
:1005AA008600FF30831286008316051487018312A2
:1005BA00870112149210F93083169200C7226B2217
:1005CA00BA01732270088312B8007108B9004D226B
:1005DA005E30F4004B30F5004830F6007B30F7000F
:1005EA003121F0217008B8007108B9007008B10013
:1005FA007108B200A7229221BA0173227008F20090
:10060A007108F300F30CF20CF313F30CF20CF3136E
:10061A007208FF3CF0007308031C013EF101F1026D
:10062A0070088312B5007108B6007008BA00B621C6
:10063A0080303406F000803032067002031D272B0A
:10064A003108330203182D2B3108B3003208B400E5
:10065A0080303206F000803022067002031D372BEC
:10066A002108310203183D2B3108A1003208A200EB
:10067A000618462B3308B1003408B200A72292218B
:10068A003D2B86184F2B2108B1002208B200A72261
:08069A009221462BE52A502BAA
:1006C800213084000D3083120313F0005630AE0041
:0806D8000330AF009B22080073
:0406AC0000340434DE
:0206B0000F3405
:1006B2003F3406345B344F3466346D347D34073452
:0406C2007F346F34DE
:02400E004A2F37
:00000001FF
